:0A0DF30000010202030304040505D9
:10078100E4F52DF52CF52BF52AC203C200C202C2F5
:1007910001120AB27E107F008E0F8F10751910752D
:1007A1001A12750D10750E1C751510751635751B01
:1007B10010751C4EEE54E070030208C5752E0075CD
:1007C1002F808E308F31C3748A9FFF74109ECF2487
:1007D10002CF3400FEE48F298E28F527F526F52572
:1007E100F524F523F522AF29AE28AD27AC26AB259C
:1007F100AA24A923A822C3120A7B5026E52F252566
:10080100F582E52E3524F58374CDF0E5252401F537
:1008110025E43524F524E43523F523E43522F522B6
:1008210080C4E4F525F524F523F522AF29AE28ADE2
:1008310027AC26AB25AA24A923A822C3120A7B50E0
:1008410031AE24AF25E5312FF582E5303EF583E069
:10085100FDE52F2FF582E52E3EF583EDF0EF240126
:10086100F525E43EF524E43523F523E43522F5228C
:1008710080B9852E0F852F1074002480FF741034E9
:10088100FFFEC3E51A9FF51AE5199EF519C3E51296
:100891009FF512E5119EF511C3E5149FF514E513BB
:1008A1009EF513C3E50E9FF50EE50D9EF50DC3E50F
:1008B100169FF516E5159EF515C3E51C9FF51CE57C
:1008C1001B9EF51BD2E843D82090E668E04409F06E
:1008D10090E65CE0443DF0D2AFD288D28AC2A8C291
:1008E100AA43E80890E680E020E105D20812141836
:1008F10090E680E054F7F0538EF8C2033001051200
:10090100055DC201300329120DFD5024C2031216E8
:100911005620001690E682E030E704E020E1EF90F7
:10092100E682E030E604E020E0E412144712187099
:0509310012111580C742
:10055D0090E6B9E0700302060E14700302068B24B8
:10056D00FE700302070E24FB7003020608147003CD
:10057D000206021460731460762405600302076D91
:10058D00121872400302077990E6BBE024FE602248
:10059D0014603324FD601114602224067048E50FA9
:1005AD0090E6B3F0E5108037E51990E6B3F0E51A63
:1005BD00802DE51190E6B3F0E5128023E51390E66A
:1005CD00B3F0E514801990E6BAE0FF121473AA0691
:1005DD00A9077B01EA494B600DEE90E6B3F0EF9071
:1005ED00E6B4F002077902077212184A020779126F
:1005FD00185C0207791218230207791218380207BE
:10060D0079121874400302077990E6B8E0247F60F0
:10061D001514601924027063A200E43325E0FFA2D3
:10062D0002E4334F8041E490E740F0803F90E6BC18
:10063D00E0547EFF7E00E0D394807C0040047D0179
:10064D0080027D00EC4EFEED4F24F3F582740D3EDD
:10065D00F583E493FF3395E0FEEF24A1FFEE34E63E
:10066D008F82F583E0540190E740F0E4A3F090E62B
:10067D008AF090E68B7402F0020779020772121865
:10068D0076400302077990E6B8E024FE6016240256
:10069D00600302077990E6BAE0B40105C2000207D3
:1006AD007902077290E6BAE0705590E6BCE0547E90
:1006BD00FF7E00E0D394807C0040047D0180027DAC
:1006CD0000EC4EFEED4F24F3F582740D3EF583E400
:1006DD0093FF3395E0FEEF24A1FFEE34E68F82F514
:1006ED0083E054FEF090E6BCE05480131313541FC6
:1006FD00FFE0540F2F90E683F0E04420F0806D80F2
:10070D0064121878506690E6B8E024FE6019240251
:10071D00705A90E6BAE0B40104D200804F90E6BA68
:10072D00E064026047803E90E6BCE0547EFF7E00B0
:10073D00E0D394807C0040047D0180027D00EC4E6E
:10074D00FEED4F24F3F582740D3EF583E493FF33F4
:10075D0095E0FEEF24A1FFEE34E68F82F58380084D
:10076D00120080500790E6A0E04401F090E6A0E072
:03077D004480F0C5
:010780002256
:03005B000212503E
:09125000C0E0C0D075D000C00759
:10125900AF91530780EF6480702F53917FE54E64FF
:10126900016023E54DB40117E54BB40103754D0346
:10127900E543D3942D5003754B017543008007E571
:091289004DB40202053E754E0051
:07129200D007D0D0D0E032FC
:0300030002118661
:10118600C0E0C083C082C0D075D000C004C005C016
:1011960006C00790E6017443F0E54C703790F00006
:1011A60074AAF0A37411F0A374CCF0A374EEF090BB
:1011B600E690E4F090E6917405F0300419AF47AE7E
:1011C60046AD45AC448F0C8E0B8D0A8C0975080F05
:1011D600D2078002154CA283B39283D007D006D0E3
:0C11E60005D004D0D0D082D083D0E032FD
:03000B00020EB82A
:100EB800C0E0C0F0C083C082C0D075D000C000C000
:100EC80001C002C003C004C005C006C007853F8C2E
:100ED80085408AE5086016D2831508E508704C90AD
:100EE800E600E054FDF0000000C283803E30073B7E
:100EF800AF0CAE0BAD0AAC09EF24FFF50CEE34FFD6
:100F0800F50BED34FFF50AEC34FFF509E4FFFEFDBF
:100F1800FCAB0CAA0BA90AA809C3120A7B700CC265
:100F28000790E600E04402F0000000D007D006D0A9
:100F380005D004D003D002D001D000D0D0D082D0C8
:060F480083D0F0D0E0327E
:0300330002186C44
:04186C0053D8EF322C
:1014C800013FD101404A044400000000C107C104A3
:1014D8000148BA014DFF0149FF01430004520000D1
:0814E8000000013E300141004B
:1017E100853F8C85408AE58954F04401F589438E13
:0617F10008D28CD2A922EF
:10108C00F07F647E00121109902001E090E679F067
:10109C007F647E00121109902002E090E679F07FC7
:1010AC00647E00121109902003E090E679F07F64D1
:1010BC007E00121109902004E090E679F07F647EA6
:1010CC0000121109902005E090E679F07F647E0013
:1010DC00121109902006E090E679F07F647E0012F0
:1010EC001109902007E090E679F07F647E001211E0
:0D10FC0009902008E090E679F07F647E0006
:0C110900EF4E6007EF1F70F81E80F5220B
:10173F00AD07AC06ED4C60147F957E0012110900C9
:0D174F000000000000ED1D70EB1C80E82282
:1017010090E6187408F000000090E619F00000005F
:0F17110090E61AF000000090E61BF000000022A6
:1017200090E6187409F000000090E619F00000003F
:0F17300090E61AF000000090E61BF00000002287
:040D0B00AD07AC067E
:100D0F0090E678E020E6F990E678E04480F090E60F
:100D1F00797491F090E678E030E0F990E679E0FFB1
:100D2F0090E678E030E0F990E679E090E7C1F09056
:100D3F00E678E030E0F990E679E090E7C2F090E6EF
:100D4F0078E030E0F990E679E090E678E030E0F98D
:100D5F0090E678E04440F0ED4C600543A0808003BE
:100D6F0053A07F90E678E020E6F990E678E04480A3
:100D7F00F090E6797450F090E678E030E0F990E684
:100D8F00797402F090E678E030E0F990E6797480BB
:100D9F00F090E678E030E0F990E678E04440F090AB
:100DAF00E678E020E6F990E678E04480F090E67986
:100DBF007450F090E678E030E0F9E490E679F09046
:100DCF00E678E030E0F9ECA2E713ED13FFC3747F90
:100DDF009F90E679F090E678E030E0F990E678E0E1
:030DEF004440F08D
:010DF20022DE
:10167B00AE0790E678E04480F090E679EE12110424
:10168B00ED12110490E678E04440F07F647E000296
:02169B00110933
:100AB20090E6007412F090E60B7403F000000090D0
:100AC200E6047480F00000007402F0000000740478
:100AD200F00000007406F00000007408F00000004E
:100AE200E4F000000000000090E61274E8F000005C
:100AF20000E490E613F000000090E614F00000001D
:100B020090E615F000000090E6187408F00000006E
:100B120090E619F000000090E61AF000000090E65E
:100B22001BF000000090E6097404F000000090E65B
:100B320070E04401F0000000E490E672F000000072
:100B420090E6207402F0000000E490E621F000003C
:100B52000090E602F000000090E603F090E60174D7
:100B620043F043AF01D20043B20843B20275B6FF6D
:100B720075B1FF43A00F43A04075B4FF12186490F3
:100B8200E67AE054FEF0C281121105D2811217E119
:100B9200753A20753B337B027D107FA0120FDA90ED
:100BA2002033E0F551A3E0F542E5516401600BE525
:100BB2005164026005E551B405057548BAC206E5FF
:100BC2005164036005E551B404057548B8C206E5F1
:100BD20051B40605754820D206E55164076005E563
:100BE20051B40805754830D206E551B40905754877
:100BF20042C206E4F54CD283FFFE120D0B754E0184
:010C020022CF
:10111500E5552401F555E43554F554E43553F553B7
:10112500E43552F552E47FE87E03FDFCAB55AA5445
:10113500A953A852C3120A7B700FFD7F9012167B2C
:10114500E4F555F554F553F552E54D24FE600F04CD
:10115500702253A0F043A04043E8080216E1E53EA3
:101165006549601C53A0F0153E43A04043E808AF15
:101175004902163153B10F53E8F753A0BF43A00FEF
:011185002247
:020DFD00D322FF
:02187000D32281
:02187200D3227F
:1018230090E680E030E704D2058002C20590E6BA74
:05183300E0F54AD3229C
:1018380090E740E54AF0E490E68AF090E68B04F001
:02184800D322A9
:08185C0090E6BAE0F53DD3224D
:10184A0090E740E53DF0E490E68AF090E68B04F0FC
:02185A00D32297
:02187400D3227D
:02187600D3227B
:02187800D32279
:1000800090E6B9E0120A8C00C4B300E8B7012EB8BC
:10009000018FB901ADBB023CBD027EBF028DC00223
:1000A000C0C103B1C203F4C60420C80447C9049503
:1000B000CA04C2CB0518CD0547CF031BD00399D185
:1000C00000000559C2A890E6017440F000000090BD
:1000D000E6047480F00000007402F0000000E4F018
:1000E000000000D2A802053790E6BDE0FE90E6BC15
:1000F000E07C002400F533EC3EF532200617AD33EA
:1001000090E6BEE0FB7EE7753AE7753B40AF4812EC
:100110000FDA0204B190E6BEE0FB7EE7753BE775BF
:100120003C40AD33AC32AF481214F10204B1E4905C
:10013000E68AF090E68BF090E6A0E020E1F9E4F5A5
:1001400034F535AF3574402FF582E434E7F583E0BC
:10015000FE74002FF582E43420F583EEF00535E5DA
:1001600035700205346413453470D8902000E07077
:10017000031213E9902000E0B401031211F2902061
:1001800000E06402600302055B12169D02055BE459
:1001900090E68AF090E68BF090E6A0E020E1F9E5A9
:1001A00048C313FF7AE77B407D03020513E490E622
:1001B0008AF090E68BF090E6A0E020E1F978137CDD
:1001C000207D017B0120062D7AE679BC7E007F012F
:1001D000120A0690E6BEE0FF7E0078147C207D01C6
:1001E0007B017AE77940120A06E548C313FF90E6DF
:1001F000BEE004803F7AE679BD7E007F01120A06E8
:1002000078147C207D017B017AE679BC7E007F0139
:10021000120A0690E6BEE0FF7E0078157C207D0184
:100220007B017AE77940120A06E548C313FF90E69E
:10023000BEE02402FD7A207B13020513E490E68AD7
:10024000F090E68BF090E6A0E020E1F990E740E046
:10025000FCA3E0FDA3E0FEA3E0F5478E468D458CB0
:1002600044E4FFFEFDFCAB47AA46A945A844C312DF
:100270000A7B7005C2040202FED2040202FEE4F50B
:1002800008C20790E600E04402F000000090E6BAE1
:10029000E030E01190E6BCE05490C4540FFFE5B1AB
:1002A00054F64FF5B190E6BAE030E11190E6BCE0CB
:1002B0005460C4540FFFE5B154F94FF5B102054E37
:1002C000E490E68AF090E68BF090E6A0E020E1F979
:1002D00090E740E0FCA3E0FDA3E0FEA3E0F5478E3D
:1002E000468D458C44E4FFFEFDFCAB47AA46A9457C
:1002F000A844C3120A7B7004C2048002D204E4F54D
:1003000008C207754C0190E600E04402F0000000CE
:10031000E490E68AF0000000020553E490E68AF0DB
:1003200090E68BF090E6A0E020E1F990E68BE07596
:100330003400F535C298D39400E53464809480503D
:100340000302055B90E740E0B4FF09754E01754D6F
:100350000102055B90E740E0F549E0B40A03754906
:100360006190E740E0B40B0375496290E740E0B468
:100370000C0375496390E740E0B40D037549649040
:10038000E740E0B40E0375496590E740E0B40F0321
:10039000754966754D0202055B90E740E541F00046
:1003A0000000E490E68AF000000090E68B0402056D
:1003B0004190E74074D7F0A3741EF0E4A3F0A3F0DB
:1003C000A3F0A20633A3F0A3E542F0A3E548F0A30F
:1003D000E551F0300505E4A3F0800690E74974FF8D
:1003E000F0000000E490E68AF000000090E68B74D4
:0403F0000A020541B7
:1003F400E490E68AF090E68BF090E6A0E020E1F944
:1004040090E6BAE0C3946F40067F6F7E0080079049
:0C041400E6BAE0FF7E00120D0B02055B53
:10042000E490E68AF090E68BF090E6A0E020E1F917
:1004300090E740E014600C14600B24026003020596
:100440005B80258032803FE490E68AF090E68BF076
:1004500090E6A0E020E1F990E740E0146019146014
:10046000252402600302055B753FF475405390E656
:10047000007402F002055B753FE87540A590E60048
:10048000740AF002055B753FD175404A90E600742E
:1004900012F002055B90E6BCE0753200F533FD908A
:1004A000E6BEE0FB7EE7753AE7753B407FA0120FA2
:1004B000DAE490E68AF000000090E6BEE090E68B79
:1004C000807FE490E68AF090E68BF090E6A0E02052
:1004D000E1F990E6BCE0D39407500302055B781382
:1004E0007C207D017B017AE679BC7E007F01120AC7
:1004F0000690E6BEE0FF7E0078147C207D017B0143
:100500007AE77940120A0690E6BEE004FD7A207B85
:10051000137F501217958043E490E68AF090E68BA3
:10052000F090E6A0E020E1F990E740E070051217B6
:10053000018003121720E490E68AF000000090E6A4
:100540008BF00000008014C281121105D281E4906A
:0C055000E68AF090E68BF08002D322C314
:01055C00227C
:1017B100C0E0C083C082D2015391EF90E65D740115
:0817C100F0D082D083D0E032A9
:1017F700C0E0C083C0825391EF90E65D7404F0D0DF
:0618070082D083D0E03224
:10180D00C0E0C083C0825391EF90E65D7402F0D0CA
:06181D0082D083D0E0320E
:1012DF00C0E0C083C08290E680E030E70E850D113C
:1012EF00850E12851513851614800C85151185161C
:1012FF0012850D13850E145391EF90E65D7410F067
:07130F00D082D083D0E03250
:1017C900C0E0C083C082D2035391EF90E65D7408F4
:0817D900F0D082D083D0E03291
:10131600C0E0C083C08290E680E030E70E850D1104
:10132600850E12851513851614800C8515118516E4
:1013360012850D13850E145391EF90E65D7420F01F
:07134600D082D083D0E03219
:010DFF0032C1
:010FFF0032BF
:01187A00323B
:01187B00323A
:01187C003239
:01187D003238
:01187E003237
:01187F003236
:011880003235
:011881003234
:011882003233
:011883003232
:011884003231
:011885003230
:01188600322F
:01188700322E
:01188800322D
:01188900322C
:01188A00322B
:01188B00322A
:01188C003229
:01188D003228
:01188E003227
:01188F003226
:011890003225
:011891003224
:011892003223
:011893003222
:011894003221
:011895003220
:01189600321F
:01189700321E
:01189800321D
:01189900321C
:01189A00321B
:01189B00321A
:1013E90090E678E04480F090E679E548121104909F
:1013F90020011211009020021211009020031211F5
:0F1409000090E678E04440F07F647E0002110915
:1011F20090E678E04480F090E679E54812110474B4
:101202000112108C90200912110090200A12110074
:1012120090200B12110090200C12110090200D1240
:10122200110090200E12110090200F121100902038
:1012320010121100902011121100902012121100B0
:0E12420090E678E04440F07F647E00021109DF
:10169D0090E678E04480F090E679E5481211047404
:1016AD002B12108C90E678E04440F07F647E0002AF
:0216BD00110911
:040FDA008F378B3989
:100FDE00902035EDF0E537C313FF7A207B357D0188
:100FEE00121795E537C313FFAB3BAA3AAD3902177B
:010FFE007979
:0414F1008F378B3A6C
:1014F500EC902035F0EDA3F0E537C313FF7A207BA0
:10150500357D02121795E537C313FFAB3CAA3BADFA
:041515003A02177906
:10175C00A907EC902013F0EDA3F0EAA3F0EBA3F0B3
:0D176C00E9C313FF7A207B137D040217955B
:1015190043B1207FF47E0112110953B1EF7FF47EAC
:101529000112110953B1BF7FF47E0112110953B1A0
:081539007F7FF47E010211091D
:1016BF0043B1207FF47E0112110953B1EF7FF47E05
:1016CF000112110943B1407FF47E0112110953B188
:0216DF007F2268
:1015410053B1DF7FF47E0112110953B1EF7FF47EB5
:101551000112110943B1407FF47E0112110953B107
:081561007F7FF47E01021109F5
:1015690053B1DF7FF47E0112110953B1EF7FF47E8D
:101579000112110953B1BF7FF47E0112110943B160
:08158900807FF47E01021109CC
:1015910053B1DF7FF47E0112110953B1EF7FF47E65
:1015A1000112110953B1BF7FF47E0112110943B138
:0815B100807FF47E01021109A4
:1015B90053B1DF7FF47E0112110943B1107FF47E2C
:1015C9000112110953B1BF7FF47E0112110943B110
:0815D900807FF47E010211097C
:1015E10053B1DF7FF47E0112110943B1107FF47E04
:1015F1000112110953B1BF7FF47E0112110953B1D8
:081601007F7FF47E0102110954
:1016090043B1207FF47E0112110943B1107FF47EAA
:101619000112110953B1BF7FF47E0112110953B1AF
:081629007F7FF47E010211092C
:10149F00AD07AC06ED1DAE0470011C4E601A12159F
:1014AF00191216BF1215411215691215911215B99D
:0914BF001215E112160980DC226D
:1016E100E4F54BF541E54D64036011E54D6405609A
:1016F1000B7F017E0012149F054380E97541012291
:10163100AB07BB30027B3AE53E6B600FE54D6405BD
:1016410060097F017E0012149F80EC754D04BB3A46
:0516510003753E30228C
:101000001201000200000040181641090000010210
:1010100000010A0600020000004001000902190058
:1010200001010080FA0904000001FF00000007052B
:1010300082020002000902190001010080FA09047D
:10104000000001FF000000070582024000000403C9
:10105000090414035100480059002D0043004300C7
:1010600044002000200024035100480059003500AE
:101070002D00490049002D003500310032002000CC
:0C108000200020002000200020000000C4
:1014470090E682E030E004E020E60B90E682E030B0
:10145700E119E030E71590E680E04401F07F147E63
:0C1467000012129990E680E054FEF02282
:1016560090E682E044C0F090E681F0438701000006
:04166600000000225E
:1014180030080990E680E0440AF0800790E680E012
:101428004408F07FDC7E0512129990E65D74FFF0A7
:0F14380090E65FF05391EF90E680E054F7F022DA
:08186400E4F55BD2E9D2AF22EA
:10134D0090E678E020E6F9C2E990E678E04480F096
:10135D00EF25E090E679F090E678E030E0F990E660
:10136D0078E04440F090E678E020E6F990E678E009
:06137D0030E1D6D2E922A6
:1013B700A90790E678E020E6F9E55B702390E678E8
:1013C700E04480F0E925E090E679F08D56AF03A977
:1013D700077557018A588959E4F55A755B01D32275
:0213E700C3221F
:10138300A90790E678E020E6F9E55B702590E6781A
:10139300E04480F0E925E0440190E679F08D56AF12
:1013A30003A9077557018A588959E4F55A755B03F0
:0413B300D322C3225C
:03004B00020C03A1
:100C0300C0E0C083C082C085C084C086758600C032
:100C1300D075D000C000C001C002C003C006C00729
:100C230090E678E030E206755B06020CED90E6781C
:100C3300E020E10CE55B64026006755B07020CEDE6
:100C4300E55B24FE605F14603624FE7003020CDE55
:100C530024FC7003020CEA24086003020CEDAB577A
:100C6300AA58A959AF5A055A8F82758300120A2CC4
:100C730090E679F0E55A65567070755B05806B9068
:100C8300E679E0AB57AA58A959AE5A8E827583000C
:100C9300120A59755B02E5566401704E90E678E0DE
:100CA3004420F08045E55624FEB55A0790E678E0E7
:100CB3004420F0E55614B55A0A90E678E04440F033
:100CC300755B0090E679E0AB57AA58A959AE5A8EE6
:100CD30082758300120A59055A800F90E678E04422
:100CE30040F0755B008003755B005391DFD007D044
:100CF30006D003D002D001D000D0D0D086D084D08B
:080D030085D082D083D0E032DC
:02147300A907C7
:10147500AE1BAF1C8F828E83A3E064037017AD0192
:1014850019ED7001228F828E83E07C002FFDEC3EEA
:09149500FEAF0580DF7E007F0040
:01149E00222B
:10177900121383E55B24FA600E146006240770F3E4
:0C178900D322E4F55BD322E4F55BD3220D
:101795001213B7E55B24FA600E146006240770F394
:0C17A500D322E4F55BD322E4F55BD322F1
:101299008E328F3390E600E054187012E533240142
:1012A900FFE43532C313F532EF13F533801590E6B9
:1012B90000E05418FFBF100BE53325E0F533E532A4
:1012C90033F532E5331533AE32700215324E60050F
:0612D90012166A80EE22ED
:10166A007400F58690FDA57C05A3E582458370F993
:01167A00224D
:03004300020E00AA
:03005300020E009A
:100E00000217B10002180D000217F7000217C900FF
:100E10000212DF0002131600020DFF00020FFF0096
:100E200002187A0002187B0002187C0002187D006C
:100E300002187E0002187F0002188000021881004C
:100E400002188200020FFF000218830002188400BB
:100E50000218850002188600021887000218880010
:100E600002188900020FFF00020FFF00020FFF00AF
:100E700002188A0002188B0002188C0002188D00DC
:100E800002188E0002188F000218900002189100BC
:100E9000021892000218930002189400021895009C
:100EA000021896000218970002189800021899007C
:080EB00002189A0002189B00D1
:03000000020F4E9E
:0C0F4E00787FE4F6D8FD75815B020F95FA
:10093600E709F608DFFA8046E709F208DFFA803EA3
:1009460088828C83E709F0A3DFFA8032E309F60890
:10095600DFFA8078E309F208DFFA807088828C83F8
:10096600E309F0A3DFFA806489828A83E0A3F608AC
:10097600DFFA805889828A83E0A3F208DFFA804C86
:1009860080D280FA80C680D4806980F2803380105D
:1009960080A680EA809A80A880DA80E280CA8033C6
:1009A60089828A83ECFAE493A3C8C582C8CCC5833E
:1009B600CCF0A3C8C582C8CCC583CCDFE9DEE7800E
:1009C6000D89828A83E493A3F608DFF9ECFAA9F08D
:1009D600EDFB2289828A83ECFAE0A3C8C582C8CCE3
:1009E600C583CCF0A3C8C582C8CCC583CCDFEADEFC
:1009F600E880DB89828A83E493A3F208DFF980CC5E
:100A060088F0EF60010E4E60C388F0ED2402B40456
:100A16000050B9F582EB2402B4040050AF232345FD
:060A260082239009867393
:100A2C00BB010CE58229F582E5833AF583E022507F
:100A3C0006E92582F8E622BBFE06E92582F8E222C9
:0D0A4C00E58229F582E5833AF583E49322E3
:100A5900F8BB010DE58229F582E5833AF583E8F0D3
:100A6900225006E92582C8F622BBFE05E92582C87F
:020A7900F22267
:100A7B00EB9FF5F0EA9E42F0E99D42F0E89C45F0D1
:010A8B002248
:100A8C00D083D082F8E4937012740193700DA3A3F9
:100A9C0093F8740193F5828883E47374029368600D
:060AAC00EFA3A3A380DF0D
:100F5A00020781E493A3F8E493A34003F68001F225
:100F6A0008DFF48029E493A3F85407240CC8C33398
:100F7A00C4540F4420C8834004F456800146F6DF67
:100F8A00E4800B01020408102040809014C8E47E1B
:100F9A00019360BCA3FF543F30E509541FFEE4935C
:100FAA00A360010ECF54C025E060A840B8E493A323
:100FBA00FAE493A3F8E493A3C8C582C8CAC583CA4E
:100FCA00F0A3C8C582C8CAC583CADFE9DEE780BE06
:0114F00000FB
:00000001FF
